:100000000C945D010C947C010C947C010C947C019B
:100010000C947C010C947C010C947C010C947C016C
:100020000C947C010C947C010C947C010C947C015C
:100030000C947C010C94F1010C947C010C947C01D7
:100040000C947C010C947C010C947C010C947C013C
:100050000C947C010C947C010C947C010C947C012C
:100060000C947C010C947C010C947C010C947C011C
:100070000C947C010C947C010C947C010C947C010C
:100080000C947C010C947C010C947C017C82216199
:10009000FF6121827C0001010101010100007C92CD
:1000A0001111117D39927C00000101010101000054
:1000B0007C92397D111111927C0000010101010136
:1000C00000000000101010101000000000000000E0
:1000D00000000000000000000000005F00000007BA
:1000E000000700147F147F14242A7F2A1223130888
:1000F000646236495522500005030000001C22416D
:10010000000041221C0014083E081408083E08089C
:100110000050300000080808080800606000002057
:10012000100804023E5149453E00427F40004261B2
:100130005149462141454B311814127F102745453E
:1001400045393C4A49493001710905033649494955
:1001500036064949291E0036360000005636000092
:10016000081422410014141414140041221408022B
:1001700001510906324979413E7E1111117E7F49B4
:100180004949363E414141227F4141221C7F494934
:1001900049417F090909013E4149497A7F08080818
:1001A0007F00417F41002040413F017F08142241F0
:1001B0007F404040407F020C027F7F0408107F3E5A
:1001C0004141413E7F090909063E4151215E7F09B7
:1001D000192946464949493101017F01013F404003
:1001E000403F1F2040201F3F4038403F6314081409
:1001F0006307087008076151494543007F4141008A
:1002000002040810200041417F0004020102044062
:1002100040404040000102040020545454787F487C
:100220004444383844444420384444487F38545483
:100230005418087E0901020C5252523E7F080404F1
:100240007800447D40002040443D007F1028440059
:1002500000417F40007C041804787C08040478384E
:10026000444444387C14141408081414187C7C0882
:100270000404084854545420043F4440203C404067
:10028000207C1C2040201C3C4030403C442810284E
:10029000440C5050503C4464544C440008364100D7
:1002A00000007F0000004136080010080810080018
:1002B00000000000110A000A110011241FBECFEF38
:1002C000D0E4DEBFCDBF13E0A0E0B1E0ECEDF5E19E
:1002D00000E00BBF02C007900D92A236B107D9F71C
:1002E00025E0A2E6B3E001C01D92AD39B207E1F707
:1002F0000E941C090C94EC0A0C94000095B19D7F9F
:1003000095B9662329F095B1986095B990E00EC033
:1003100095B1977F95B9FACF25B12F7E25B925B133
:10032000206225B925B12F7D25B99F5F983088F4CB
:1003300047E050E0491B5109282F30E002C03595B5
:1003400027954A95E2F720FFE7CF25B1206125B92F
:10035000E6CF85B1826085B9089560E00E947E0194
:10036000089561E00E947E01089560930E017093EC
:100370000F018093100190931101609367037093B4
:1003800068038093690390936A0308958BE08093D8
:1003900081008DE790E0909389008093880082E04F
:1003A00080936F00109285001092840080910E015E
:1003B00090910F01A0911001B091110180936703FA
:1003C00090936803A0936903B0936A038FB7806822
:1003D0008FBF089510928100089581E080936B0390
:1003E00008951F920F920FB60F9211240BB60F9221
:1003F0002F933F934F935F936F937F938F939F932D
:10040000AF93BF93EF93FF9380916703909168033D
:10041000A0916903B0916A030197A109B109809382
:10042000670390936803A0936903B0936A03892BD1
:100430008A2B8B2B99F0FF91EF91BF91AF919F91F8
:100440008F917F916F915F914F913F912F910F907D
:100450000BBE0F900FBE0F901F9018950E94ED01DC
:1004600080910E0190910F01A0911001B0911101A6
:100470008093670390936803A0936903B0936A0322
:10048000DACF482F592F30E020E002C02F5F3F4FD6
:10049000241735074CF490E080E0873063E096073E
:1004A000ACF700000196F9CF08959BB19F7B9BB9F3
:1004B00088B98BB180688BB900008BB18F778BB90D
:1004C00082E090E00E944102089581E00E9455027E
:1004D0000895813120F481580E9455020895815574
:1004E0000E945502089584E690E00E94410288E34C
:1004F0000E94550286E00E9455028FE00E9455023C
:1005000081E00E9455028AE090E00E944102089535
:100510009BB190649BB988B98BB180688BB900009E
:100520008BB18F778BB981E090E00E9441020895F2
:100530001F93CF93DF93C62FD72F9881992349F02C
:1005400011E0180F0E94690289910E948802812F90
:10055000F4CFDF91CF911F9108950F931F93CF9305
:10056000062F172F883020F0CF911F910F910895FB
:10057000885F880F880F880F0E945502C0E007C06F
:10058000F801EC0FF11D80810E948802CF5FC83016
:10059000B8F3EACF442349F021E030E002C0220F53
:1005A000331F6A95E2F7822B089521E030E002C004
:1005B000220F331F6A95E2F720958223089521E0E8
:1005C00030E002C0220F331F6A95E2F782230895BC
:1005D0000F931F93CF93DF9300D000D000D0CDB7FF
:1005E000DEB729833A834B835C8309811A812B818F
:1005F0002E833C813D8329813A814B815C810E941D
:10060000FF0969837A838B839C83602F712F8E818E
:100610009D8129813A814B815C81232B242B252BC1
:1006200021F726960FB6F894DEBF0FBECDBFDF913F
:10063000CF911F910F910895CF93DF9384B1826082
:1006400084B984B1846084B984B1886084B984B188
:10065000806184B984B1806284B985B1846085B9D0
:1006600085B1826085B983EC99E00197F1F700C00C
:10067000000085B18B7F85B98BE594E40197F1F794
:1006800000C0000085B1846085B985B18D7F85B9D2
:1006900081E20E94AD0183E10E94AD0186E00E94EB
:1006A000AD0182EC0E94AD0180E20E94AD0189E0C3
:1006B0000E94AD0180E80E94AD0180E40E94AD017E
:1006C000D0E0C0E0C83F91E0D90728F480E00E9464
:1006D000B1012196F7CF88E00E94AD018CE00E9425
:1006E000AD01DF91CF91089580E80E94AD0180E4D3
:1006F0000E94AD01109264051092650590E080E0C3
:10070000883F21E0920730F4FC01E459FC4F10824D
:100710000196F6CF0895882321F080E20E94AD0172
:10072000089584E2FBCF262F26952695269590E006
:1007300034E5239F800D911D1124442379F06770C7
:1007400021E030E002C0220F331F6A95E2F7FC017E
:10075000E459FC4F8081822B80830895677021E0EB
:1007600030E002C0220F331F6A95E2F7FC01E45922
:10077000FC4F20958081282320830895EF92FF92DB
:100780000F931F93CF93DF93E82EF62E00E041C026
:100790006091650580916405610F40E0800F0E94C3
:1007A00093031F5FCE01880F991F880F991F880F31
:1007B000991F8C1B9D0B1817190654F5EE2D0E2C46
:1007C000000CFF0BB097802F6F2D0E94DF099F0157
:1007D000220F331F220F331FE20FF31FE80FF11D0B
:1007E000EC52FF4FE491F0E0812F0E94DF0902C03C
:1007F000F595E7958A95E2F7E0FFCACF6091650528
:1008000080916405610F41E0800F0E949303C9CF7E
:100810000F5FCF2DD0E0CE01880F991F880F991F51
:100820008C0F9D1F0817190614F410E0BBCFE4E6E7
:10083000F5E08F2D880F880F8F0D9081890F8F5FC6
:100840008083843568F010926405E5E6F5E08F2D2D
:10085000880F880F880F8F199081890F8F5F808391
:1008600080916505803320F0109264051092650533
:10087000DF91CF911F910F91FF90EF900895DF923C
:10088000EF92FF920F931F93CF93DF93D82EF62E04
:10089000E42E00E07AC02D2D0D2C000C330B2052DD
:1008A0003109802F6F2D0E94DF09F901EE0FFF1F24
:1008B000EE0FFF1FEE0FFF1FE20FF31FEE0FFF1FE4
:1008C000E80FF11DE457FF4FE491F0E0812F0E9403
:1008D000DF0902C0F595E7958A95E2F7E0FF0AC0C7
:1008E0006091650580916405610F41E0800F0E9471
:1008F000930313C06091650580916405610F40E02A
:10090000800F0E94930309C0609165058091640582
:10091000610F41E0800F0E9493031F5F1C171D06AB
:100920009CF581E0E81609F4B6CF2D2D0D2C000CB6
:10093000330B20523109802F6F2D0E94DF09F901FE
:10094000EE0FFF1FEE0FFF1FEE0FFF1FE20FF31F53
:10095000EE0FFF1FE80FF11DE457FF4FE491F0E0A9
:10096000812F0E94DF0902C0F595E7958A95E2F78D
:10097000E0FFCACF6091650580916405610F40E09A
:10098000800F0E949303C9CF0F5F8F2D90E0EC0181
:10099000CC0FDD1FCC0FDD1FCC0FDD1FC80FD91F03
:1009A0000C171D0614F410E0B9CF6F2D660F660FFB
:1009B000660FF60EE4E6F5E080818F0D8F5F808391
:1009C000843540F010926405E5E6F5E08081F80E8C
:1009D000F394F08280916505803320F010926405D5
:1009E00010926505DF91CF911F910F91FF90EF90CD
:1009F000DF9008951F93CF93DF93C82FD92F162F21
:100A00008881882329F02196612F0E94BE03F8CFA8
:100A1000DF91CF911F9108958093640560936505E0
:100A20000895CF93DF9380E80E94AD0180E40E9497
:100A3000AD01D0E0C0E0C83F81E0D80740F4FE013E
:100A4000E459FC4F80810E94B1012196F4CFDF91DF
:100A5000CF910895282F392F2115310549F02130E4
:100A6000310509F44BC01092660580E090E00895CE
:100A700080916403882309F444C080919A058630EC
:100A800080F0863051F181E080939C058091630372
:100A90008823C9F11092630310929A0581E090E0D7
:100AA00008950E9465020E9474036FE082E20E9432
:100AB0000C05E0919A05F0E0EE0FFF1FE050FF4FAC
:100AC00063E0808191810E94FA0480919A058F5F92
:100AD00080939A050E941105D9CF6FE082E10E94B0
:100AE0000C0562E08FE093E00E94FA0480919A0581
:100AF0008F5F80939A050E941105C8CF80E090E037
:100B00000895822F089581E090E008950F931F9338
:100B1000CF93DF93082F192F85B1886085B9D0E076
:100B2000C0E0C93F81E0D80744F4F801EC0FFD1F95
:100B300080810E94B1012196F4CF85B1877F85B96C
:100B400085B1826085B9DF91CF911F910F91089592
:100B5000813081F0E1ECF0E0808188618083E2EC1B
:100B6000F0E080818660808383E38093C4001092EC
:100B7000C5000895E9ECF0E0808188618083EAECAB
:100B8000F0E080818660808383E38093CC001092C4
:100B9000CD000895813021F08091C00080720895C9
:100BA0008091C80080720895813021F08091C0004A
:100BB000807408958091C80080740895813021F078
:100BC0008091C000807808958091C8008078089551
:100BD000813041F08091C00088231CF48091C600D0
:100BE000F9CF08958091C80088231CF48091CE002D
:100BF000F9CF0895613039F09091C00095FFFCCF96
:100C00008093C60008959091C80095FFFCCF809313
:100C1000CE000895813039F08091C0008823E4F738
:100C20008091C60008958091C8008823E4F78091E0
:100C3000CE0008958FEE82B9000080B160E00E947E
:100C4000DF02882309F46DC080B161E00E94DF02F9
:100C5000882309F468C080B162E00E94DF02882323
:100C600009F463C080B163E00E94DF02882309F4C5
:100C70005EC08FED82B9000080B160E00E94DF02AB
:100C8000882309F456C080B161E00E94DF02882306
:100C900009F451C080B162E00E94DF02882309F4A8
:100CA0004CC080B163E00E94DF02882309F447C092
:100CB0008FEB82B9000080B160E00E94DF028823E0
:100CC00009F43FC080B161E00E94DF028823D9F1BE
:100CD00080B162E00E94DF028823B9F180B163E055
:100CE0000E94DF02882399F18FE782B9000080B16A
:100CF00060E00E94DF02882361F180B161E00E9420
:100D0000DF02882341F180B162E00E94DF02882384
:100D100021F180B163E00E94DF02882301F180E0CD
:100D2000089581E3089584E3089587E308958AE2AE
:100D3000089582E3089585E3089588E3089580E3A4
:100D4000089583E3089586E3089589E3089583E28F
:100D5000089581E4089582E4089583E4089584E485
:100D600008951F93CF93DF93C82FD92FC230D10599
:100D700009F446C074F0C330D10509F453C0249778
:100D800009F05AC00E941A06811153C0C1E0D0E098
:100D900062C0209709F45DC0C130D10509F04CC094
:100DA00080916605882309F456C081E0809364032E
:100DB000C2E0D0E080919B058F3108F043C1809163
:100DC0006605843309F450C0853309F48FC0863337
:100DD00009F4CEC065E173E081E00E94980288E0EA
:100DE0000E946902809198058A3008F403C1843614
:100DF00008F404C180919B058F5F80939B052FC0F1
:100E00000E941A06882359F0C3E0D0E08091630362
:100E10008823B9F010926303D0E0C0E020C0C1E0A5
:100E2000D0E0F4CF0E941A06811119C0C4E0D0E0CE
:100E300016C0C3E0D0E013C010926605D0E0C0E059
:100E40000EC0C130D10539F0C230D10509F4B2CF9E
:100E500006C0C1E0D0E00E941A0680936605CE016C
:100E6000DF91CF911F91089580919905E82FF0E0CF
:100E7000E959FA4F90819232E1F095E1899F802DF6
:100E8000112469E18A5F0E940C05E0919905F0E068
:100E9000E959FA4F40E061E080810E943F040E94DE
:100EA0001105809199058530F0F48F5F8093990545
:100EB00091CF95E1899F802D112469E18A5F0E947D
:100EC0000C05E0919905F0E0E959FA4F41E061E045
:100ED00080810E943F040E941105809198058F5FD8
:100EE00080939805DECF1092990574CF8091990573
:100EF000E82FF0E0E959FA4F90819032E1F095E166
:100F0000899F802D112469E18A5F0E940C05E09180
:100F10009905F0E0E959FA4F40E061E080810E94D4
:100F20003F040E941105809199058530F0F48F5F90
:100F3000809399054FCF95E1899F802D112469E118
:100F40008A5F0E940C05E0919905F0E0E959FA4F9B
:100F500041E061E080810E943F040E941105809180
:100F600098058F5F80939805DECF1092990532CF58
:100F700080919905E82FF0E0E959FA4F908191327C
:100F8000E1F095E1899F802D112469E18A5F0E943B
:100F90000C05E0919905F0E0E959FA4F40E061E075
:100FA00080810E943F040E9411058091990585303F
:100FB000F0F48F5F809399050DCF95E1899F802D87
:100FC000112469E18A5F0E940C05E0919905F0E027
:100FD000E959FA4F41E061E080810E943F040E949C
:100FE0001105809198058F5F80939805DECF109250
:100FF0009905F0CE805D0E948802FCCE88E00E94B8
:101000006902809198051DEC819F812D11248695A0
:1010100086958695805D0E94880289E00E9469021B
:1010200080919805819F112D11241695169516957E
:10103000912F990F990F190F110F811B805D0E943D
:101040008802D8CE6DE173E081E10E9498020E948F
:101050001A06823309F003CF81E080936303109274
:101060009B051092640310929C05109298050E94B3
:101070006502F5CE0F931F93E82FF92F608321832C
:101080003283438354831582168217821086128717
:101090000187CF011F910F9108950F931F93CF9355
:1010A000DF93082F192FC62FD72F0E949C0ABE014D
:1010B000601B710B6F5F7F4F0E94EB09800F911FC8
:1010C000DF91CF911F910F9108950F931F93CF93AD
:1010D000DF93C82FD92F209791F0C130D105F1F0BF
:1010E000C130D10589F480919B058F3108F080C013
:1010F0008091620381115AC010E000E022C080910B
:101100009C05811106C08C2FDF91CF911F910F910B
:1011100008950E947403C1E0D0E0E5CF80919C0562
:101120008111E1CF90E0F0CF80E2F801E959FA4F68
:10113000808305C082E2F801E959FA4F80830F5F8E
:101140001F4F04301105C4F466E170E084E190E0C3
:101150000E944D08282F392F309366032093650392
:101160002431310509F32531310521F781E2F801F8
:10117000E959FA4F8083E3CF10E000E014C085E125
:10118000089F802D112465E28A5F0E940C05F801FA
:10119000E959FA4F41E061E080810E943F040E94DA
:1011A00011050F5F1F4F043011054CF3809162034E
:1011B0008630A8F460E080E00E940C059091620304
:1011C00062E085E3891B0E94BE030E9411058091A5
:1011D00062038F5F809362038C2F9D2F95CF1092B7
:1011E0006203109299050E9474038C2F9D2F8CCF5F
:1011F0000E9474036DE08FE00E940C0561E087E2BD
:1012000093E00E94FA0466E187E20E940C0561E027
:1012100083E393E00E94FA0460E28AE10E940C05F5
:1012200061E086E393E00E94FA040E9411051092A7
:101230009C058C2F9D2F68CFCDB7DEB72B970FB6AF
:10124000F894DEBF0FBECDBF80EF81B98FE082B9C9
:101250008FEF87B918B88AB91BB801EB16E029E1FE
:1012600030E040E050E070E060E0CE0101960E9486
:101270003A088BE0FE013196ABE6B5E001900D92A5
:101280008A95E1F70AE215E028EE33E040E050E00D
:1012900070E060E0CE0101960E943A088BE0FE010A
:1012A0003196A6E7B5E001900D928A95E1F705E643
:1012B00018E028EE33E040E050E070E060E0CE015E
:1012C00001960E943A088BE0FE013196A1E8B5E054
:1012D00001900D928A95E1F769E170E080E090E07D
:1012E0000E94B5010E94C6010E9473020E941C0365
:1012F0000E94740387E191E00E9486056EE373E02B
:1013000081E00E94980268E473E081E10E94980203
:1013100054C08BE08C9DF0018D9DF00D1124E5599A
:10132000FA4F85819681A781B08540910A0150913D
:101330000B0160910C0170910D01840F951FA61F88
:10134000B71F85839683A783B0871F5F133078F517
:10135000C12ED12C2BE0129FF0011124E559FA4F38
:10136000458156816781708581819281A381B48195
:10137000481759076A077B0760F22BE02C9DC001D4
:101380002D9D900D1124DC01A559BA4F7D011996B0
:10139000ED91FC911A978C91082E000C990B0995F0
:1013A000F70180831582168217821086B2CF809152
:1013B0006B038823E1F310926B0310E0C7CF991BF6
:1013C00079E004C0991F961708F0961B881F7A953C
:1013D000C9F78095089597FB072E16F4009407D05F
:1013E00077FD09D00E94210A07FC05D03EF49095B4
:1013F00081959F4F0895709561957F4F0895A1E263
:101400001A2EAA1BBB1BFD010DC0AA1FBB1FEE1F7E
:10141000FF1FA217B307E407F50720F0A21BB30BC9
:10142000E40BF50B661F771F881F991F1A9469F745
:1014300060957095809590959B01AC01BD01CF01A1
:101440000895AA1BBB1B51E107C0AA1FBB1FA6170B
:10145000B70710F0A61BB70B881F991F5A95A9F75D
:1014600080959095BC01CD010895CF92DF92EF92C7
:10147000FF92CF93DF93CDB7DEB72A970FB6F894DC
:10148000DEBF0FBECDBF89879A87A985BA852D910A
:101490003D914D915C9129833A834B835C83232B4F
:1014A000242B252B41F424E239ED4BE557E0298329
:1014B0003A834B835C8369817A818B819C812DE1A6
:1014C00033EF41E050E00E94AB0A69017A01A7EADC
:1014D000B1E49B01AC010E94CA0A69837A838B83C1
:1014E0009C83ACEEB4EFA70196010E94D80A9B0141
:1014F000AC0189819A81AB81BC81820F931FA41FAB
:10150000B51FB7FF03C00197A109B048E985FA8567
:1015100080839183A283B3839F772A960FB6F89432
:10152000DEBF0FBECDBFDF91CF91FF90EF90DF9078
:10153000CF9008950C94350A82E191E00C94350A1D
:10154000B0E0A0E08093120190931301A0931401E6
:10155000B09315010895052E97FB1EF400940E9488
:10156000C20A57FD07D00E94FF0907FC03D04EF4C2
:101570000C94C20A50954095309521953F4F4F4F9E
:101580005F4F089590958095709561957F4F8F4F2F
:101590009F4F08950E94DD0AA59F900DB49F900D66
:1015A000A49F800D911D11240895B7FF0C94CA0AC1
:1015B0000E94CA0A821B930B0895A29FB001B39F99
:1015C000C001A39F700D811D1124911DB29F700D4C
:0C15D000811D1124911D0895F894FFCF97
:1015DC0058035A035C035E036003320000000100F1
:1015EC0000000100000012000000000000000000DC
:1015FC00000000000080F0381C38F080000080FCF7
:10160C00FCA494949C78380808FCFC8C8C94AC78E2
:10161C00304040E0F0582C2C2C2C2C58F0E08CFC5A
:10162C00E000000CFCE0000000E0FC1C00000000EE
:10163C00000000000000000000000000000000009E
:10164C0000000000010202141C0F05040406030F25
:10165C001E11001F1F010103020E1C10001F1F0191
:10166C000103020E1C100003070C18181818180C94
:10167C00070300000F1F131E0F071E1C180F09086D
:10168C001810100000000000000000000000000016
:10169C0000008040202010101010102020408000EE
:1016AC00000000000000000000000000080484841A
:1016BC00FCFCC8888888180004FCFC0C04000000A2
:1016CC0000041CFCE48484849C0C0000040C1C347A
:1016DC0060C0C0741C0C040000000000000000007E
:1016EC0000000000003EC100081C3EC8380804047D
:1016FC0002020302C284040830C000000000000093
:10170C00000001001F1F000000010100101F1F1826
:10171C001818181C1E001C1F17101011101E1C105E
:10172C000010181C160301171E18101000000000E2
:10173C00000000000000000000000001020204078D
:10174C001820414181818181874341201807000085
:10175C00000000000000000000000000000000007D
:10176C000080404040004040C040400080404080ED
:10177C0000C0404080004040C040400000000000DD
:10178C00000000000000000000000000000000004D
:10179C00000000000000000000000000000000003D
:1017AC00000000000000000000000000000000002D
:1017BC000000000000040505020000000700000006
:1017CC0007010107000701030400000007000000E7
:1017DC0000000000000000000000000000000053AA
:1017EC00544152540053636F72653A200047616D47
:1017FC0065204F76657200507265737320456E7468
:10180C00657200746F005265737461727400576571
:10181C006C636F6D65212100436C69636B20546FA1
:10182C00205374617274210035003400330032008F
:02183C00310079
:00000001FF
